:20880000AF82BF00028005BF0227801374A2C0E0740EC0E0758200128DDE15811581227458
:20882000A2C0E0740EC0E0758202128DDE15811581227495C0E0740CC0E0758200128BC7EC
:20884000AF8215811581EF7044900C95E0FF6028128CD2900FBDE0FF74F4C0E07401C0E0B8
:20886000E4C0E0C0E07420C0E0E4C0E08F82128BE9E58124FAF58122900FBDE0FF7420C0DA
:20888000E0E4C0E08F82128C75158115812222B2A2900FBDE0FF74F4C0E07401C0E0E4C090
:2088A000E0C0E0C0E07408C0E08F82128BE9E58124FAF58122900FBDE0FF74C8C0E0E4C00E
:2088C000E0C0E0C0E0C0E07410C0E08F82128BE9E58124FAF581222222E582FF24FC5001E6
:2088E00022EF2F2F9088E8730288F402899E0289D8028A107496C0E0740CC0E0758200121D
:208900008D89AF8215811581EF600122900C96E0FF6075128A497401C0E07403C0E07423E4
:20892000C0E07416C0E004C0E0758203128B50E58124FBF5817416C0E07423C0E07582008F
:20894000128A4D158115817403C0E07414C0E07403C0E07417C0E0758201128AA8E58124BB
:20896000FCF581900FBDE0FF74E8C0E07403C0E0E4C0E0C0E07440C0E0E4C0E08F82128B8D
:20898000E9E58124FAF58122900FBDE0FF7440C0E0E4C0E08F82128C751581158122900FAE
:2089A000BDE0FF7440C0E0E4C0E08F82128C7515811581900FBDE0FF74F4C0E07401C0E09B
:2089C000E4C0E0C0E07480C0E0E4C0E08F82128BE9E58124FAF58122900FBDE0FF7440C0F9
:2089E000E0E4C0E08F82128C7515811581900FBDE0FF74F4C0E07401C0E0E4C0E0C0E0C087
:208A0000E004C0E08F82128BE9E58124FAF58122900FBDE0FF7440C0E0E4C0E08F82128C5D
:208A20007515811581900FBDE0FF74F4C0E07401C0E0E4C0E0C0E0C0E07402C0E08F821240
:098A40008BE9E58124FAF581229D
:208A49001209A622C008858108A982E581F5F024FDF581D002D00385F0811209ACD00822EB
:208A6900C008858108AA82AB83E581F5F024FDF581D005D004E51824FEF582F51840021538
:208A890019851983D001D0E0F0A3E9F085F0811209B2E5182402F51850020519D00822C089
:208AA90008858108A982E581F5F024FDF581D002D003D004D00585F0811209B8D00822C0B9
:208AC90008858108AA82AB83E581F5F024FDF581D005D004E51824FAF582F5184002151983
:208AE9008519837903D006D0E0F0A3EEF0A3D9F585F0811209BEE5182406F51850020519F5
:208B0900D00822C008858108AA82AB83E581F5F024FDF581D005D004E51824F8F582F518FA
:208B2900400215198519837904D006D0E0F0A3EEF0A3D9F585F0811209CAE5182408F518A5
:208B490050020519D00822C008858108A982E581F5F024FDF581D002D003D004D005E51874
:208B690024FEF582F51840021519851983D0E0F0A3D0E0F085F0811209C4E5182402F518CD
:078B890050020519D008227B
:058E8E003078313800CE
:208B9000AA82AB83ACF0FD12090A898222AA82AB83120910898222C008858108A982E58167
:208BB000F5F024FDF581D002D005D00485F0811209168982D00822C008858108A982E5811B
:158BD000F5F024FDF581D003D00285F08112091C8982D008223D
:058E93003078313800C9
:208BE5001208B622C008858108A982E581F5F024FDF581D003D002E51824FCF582F5184015
:208C05000215198519837C04E58124FDF8800208A3E6F0DCFA85F0811208CEE5182404F52E
:208C250018500205198982D00822C008858108A982E581F5F024FDF581D003D002E51824F9
:208C4500FCF582F518400215198519837C04E58124FDF8800208A3E6F0DCFA85F081120816
:208C6500D4E5182404F518500205198982D00822C008858108A982E581F5F024FDF581D0C1
:208C850003D00285F0811208DA8982D00822C008858108A982E581F5F024FDF581D003D085
:208CA5000285F0811208E08A828B838CF0EDD008222222AA82AB83ACF0FD1208E6222222A3
:0D8CC500221208EC8A828B838CF0ED2222B3
:058E98003078313800C4
:208CD20012096422C008858108A982E58124FDF8860212096AD00822C008858108A982E574
:208CF20081F5F024FDF581D003D00285F081120970D00822C008858108D00822C0088581A7
:208D120008AA82AB83E581F5F024FDF581D005D004E51824FEF582F5184002151985198320
:208D3200D001D0E0F0A3E9F085F081120976E5182402F51850020519D008222212097C2238
:058E9D003078313800BF
:208D5200AA82AB83ACF0FD120C4C898222AA82AB83120C52898222C008858108A982E58119
:208D7200F5F024FDF581D002D005D00485F081120C588982D00822C008858108A982E58112
:158D9200F5F024FDF581D003D00285F081120C5E8982D0082234
:058EA2003078313800BA
:208DA700AA82AB83ACF0FD120C22898222AA82AB83120C28898222C008858108A982E58118
:208DC700F5F024FDF581D002D005D00485F081120C2E8982D00822C008858108A982E581E7
:208DE700F5F024FDF581D003D00285F081120C348982D00822C00885810889F0E58124091C
:208E0700851882851983F92403F581A70519A704197C03E0FAA3E0A3F719A70219DCF4A724
:208E2700F08A828B83E58124F4F5818982D00822C008858108851882851983E5812407F58C
:208E47008189F0A70519A70419E0FDA3E0F719A70519A7F019A3E0FDA3E0F719A7058A82D8
:208E67008B83E58124F9F5818982D00822C0088581088A828B83C001E5812403F581E581C5
:078E870024FCF581D0082254
:058EA7003078313800B5
:00000001FF
