:20A000009017DD7445F09017DE7463F09017DF746FF09017E07447F09017E17465F0901744
:20A02000E2746EF074DDC0E07417C0E07415C0E075820012A157AF82158115811581900E95
:20A04000A2EFF0900FBDE0FF74F4C0E07401C0E0E4C0E0C0E0C0E07408C0E08F8212A06E16
:0AA06000E58124FAF58102012222B5
:05A198003078313800B1
:20A06A001208B622C008858108A982E581F5F024FDF581D003D002E51824FCF582F518407B
:20A08A000215198519837C04E58124FDF8800208A3E6F0DCFA85F0811208CEE5182404F595
:20A0AA0018500205198982D00822C008858108A982E581F5F024FDF581D003D002E5182460
:20A0CA00FCF582F518400215198519837C04E58124FDF8800208A3E6F0DCFA85F08112087D
:20A0EA00D4E5182404F518500205198982D00822C008858108A982E581F5F024FDF581D028
:20A10A0003D00285F0811208DA8982D00822C008858108A982E581F5F024FDF581D003D0EB
:20A12A000285F0811208E08A828B838CF0EDD008222222AA82AB83ACF0FD1208E622222209
:0DA14A00221208EC8A828B838CF0ED222219
:05A19D003078313800AC
:20A15700C008858108A982E581F5F024FDF581D002D005D00485F081120EDA8982D0082295
:20A17700C0088581088982D00822AA82AB83ACF0FD120EE089822289822222228A828B8342
:01A1970022A5
:05A1A2003078313800A7
:00000001FF
