:020000040000FA
:0600000002010A0222BB0E
:03002B00021EBAF8
:03003300021E9416
:0300530002232E57
:03006B00021EDB97
:03007B00021EF56D
:1000830002216FE5C754F84401F5C7790122000046
:100093000080FB120086B900030200F4E4792178A2
:1000A30008B800028004F709D8FCE479297802B87B
:1000B30000028004F709D8FCE4900A817857790B91
:1000C3008002F0A3D8FCD9FA9014D7AA82AB83900C
:1000D300013A789979078015E493A3AC82AD838ABA
:1000E300828B83F0A3AA82AB838C828D83D8E9D9D8
:1000F300E77582837583B7740312011C758291754A
:100103008300740012011C75D00075813F7518813E
:1001130075190A759F00020096C09FF59FE473D07E
:100123009F22D083D082C09FE493C0E0740193C028
:10013300E0740293F59F22FFFF0A4865616420661D
:10014300696C6500000000000000000A436F6465ED
:10015300206461746100000000000000000846692B
:10016300727374436F64654C6F632E000000000A62
:10017300466C61736820436F646520466C61670059
:10018300000A466C617368436F6465536563746901
:100193006F6E000249820100002B8202458201003A
:1001A30000D914029F82030000830A0257820100D0
:1001B30000DA14024582030000EB14028B82030071
:1001C30000870A025782010000EC140245820100F5
:1001D30000FD140275820300009B0A02578201008E
:1001E30000FE140245820100000F1502A1820300E4
:1001F300009D0A025782010000101502458201008A
:100203000021150243820300009E0A025782010067
:100213000022150000000000000000FFFF0A4163F8
:1002230063656C20456E61626C65000002140041D9
:100233006363656C2052616E6765000010101041A6
:100243006363656C20582D436F6F7264696E6174CC
:10025300650000416363656C20592D436F6F7264C1
:10026300696E6174650000416363656C205A2D43B8
:100273006F6F7264696E61746500000249820100E8
:10028300003A82024582010000BD15027982030013
:1002930000BE0A025782010000BE1502458201001A
:1002A30000CC15027B82010000CD150257820100AC
:1002B30000CF15024582010000DC15027D8200009B
:1002C30000BF0A026582030000C50A0257820100CB
:1002D30000DF15024582010000DD15027F82000068
:1002E30000C10A026582030000CB0A0257820100A3
:1002F30000F315024582010000DE15026982000049
:1003030000C30A026582030000D10A02578201007A
:1003130000071612640401024982010000288202C8
:100323004582010000B316029B82010000B416024D
:100333006582030000D90A029982010000B5160202
:100343000202020202020202010D00000010010279
:1003530049820100002E82024582010000DF16025D
:100363009582010000DF0A024582010000E01602C7
:1003730093820100003481024582010000E11602EC
:1003830091820100001881024582010000E21602F9
:100393008F82010000B280024582010000E3160251
:1003A3008D82010000A080024582010000E4160254
:1003B3008982010000D680024582010000E5160211
:1003C3008782010000C480024582010000E6160214
:1003D30085820100002681024582010000E71602A2
:1003E3008382010000E8166801E803053F10FF005F
:1003F3000130750302010600000000000000000048
:1004030000000000000000000000000000000000E9
:10041300000000FFFF0600800CE8030B094E656F28
:100423002773206E6F6465051250002003020A00D3
:100433000201060302F0FF05FF3063706C4E656F27
:10044300277320424C45204E6F6465000000000076
:100453000000D40B0000EC0BDA0BF20B160C0A4372
:1004630068617261637465726973746963203100D2
:1004730002436861726163746572697374696320AE
:1004830032000843686172616374657269737469E9
:10049300632033001043686172616374657269732A
:1004A3007469632034000243686172616374657226
:1004B3006973746963203500024982010000408238
:1004C300024582010000FE17024D82030000CD0F9A
:1004D300025782010000FF17024582010000101835
:1004E300024F82010000E10F025782010000111840
:1004F3000245820100002218025182020000E20F2D
:1005030002578201000023180245820100003418BB
:10051300025382000000E30F026582030000E40F30
:100523000257820100003518024582010000461877
:10053300025582040000EA0F0257820100004718A7
:100543000A74696D655F656E61626C6572000A7439
:10055300696D65000A646174650000000A616C617D
:10056300726D00000249820100003D820245820152
:100573000000E018025D82030000F10F02578201C0
:100583000000E118024582010000EE18025F8203B9
:100593000000F20F025782010000EF1802458201AA
:1005A3000000F418026182030000F50F0257820174
:1005B3000000F518024582010000FC180263820363
:1005C3000000FA0F025782010000FD18000000002E
:1005D3000000000000000000000000000000000018
:1005E3000000000000000000000000000000000008
:1005F30000000000000000000000000000000000F8
:1006030000000000000000000000000000000000E7
:1006130000000000000000000000000000000000D7
:1006230000000000000000000000000000000000C7
:1006330000000000000000000000000000000000B7
:1006430000000000000000000000000000000000A7
:100653000000000000000000000000000000000097
:100663000000000000000000000000000000000087
:100673000000000000000000000000000000000077
:100683000000000000000000000000000000000067
:100693000000000000000000000000000000000057
:1006A3000000000000000000000000000000000047
:1006B3000000000000000000000000000000000037
:1006C3000000000000000000000000000000000027
:1006D30000000000FF0000B40000280028002830BC
:1006E30075A000A000A000A00000080008E001F031
:1006F30000100010001000100010001000500050F7
:1007030000500010001000D0070000000000000F90
:1007130000307507001000010081FF0000FF740E18
:10072300920E7A0EFF02020A0A025000A000000095
:10073300E80302498201000034820245820100007D
:10074300C51A026B820100003110024582010000CC
:10075300C61A02718201000047100245820100009F
:10076300C71A027782030000491002458201000084
:10077300C81A0281820300004A1002458201000068
:10078300C91A02A582010000CA1AFF0100FF200254
:10079300498201000031820245820100002E1B02C2
:1007A300A382000000000002658203000097105638
:1007B30014561456145614561456145614561456E6
:1007C300145614561456145614D216EA16CC16128E
:1007D3000125E67F00120125E97F00120125A99377
:1007E30003120125E393031201250094031201254B
:1007F30074940312012552950312012538970312AD
:10080300012583DC021201258DDC02120125CBDCDC
:100813000212012514DD021201254EDD021201250B
:10082300A8DD02120125C9DD02120125D2DD021263
:1008330001251FDE0212012548DE0212012552DEC8
:1008430002120125BEDE0212012550DF021201252C
:100853009ADF02120125D0DF021201255CE00212A9
:1008630001259DE002120125D4E002120125E6E0F4
:100873000212012505E1021201250EE102120125F2
:10088300D6E1021201257FB003120125F57D001286
:1008930001252B7E00120125617E00120125AC7F0C
:1008A300001201256EB60312012584B60312012539
:1008B300CEB60312012578F8021201258DF8021233
:1008C300012540F90212012580F90212012599F947
:1008D30002120125D4F90212012521FA021201257F
:1008E30053FA0212012595FA02120125A0FC021205
:1008F300012576B1031201259FB103120125CEB163
:100903000312012510B203120125008003120125F1
:100913005B8003120125788003120125AC81031249
:100923000125208203120125FA8203120125E483A3
:10093300031201252BA3031201255BA30312012537
:100943006EA30312012519A403120125BAA40312ED
:100953000125089E031201252D9E03120125579E92
:10096300031201257CA803120125ADA8031201255A
:10097300C5A803120125E7A803120125D8A903126C
:100983000125FEB50312012509B60312012531B66F
:100993000312012501B50312012549B503120125EF
:1009A3005DB50312012540F4021201259CF40212E5
:1009B3000125E1F40212012550F502120125CFF5BC
:1009C30002120125A7F60212012555F7021201258D
:1009D3002DB7031201255996011201251F98011203
:1009E3000125BE9901120125729A01120125FC9A73
:1009F30001120125819B01120125AA9B01120125E8
:100A0300309F01120125AC9F01120125D8A00112CC
:100A1300012512A10112012553A1011201259BA257
:100A230001120125F8A20112012541A3011201259A
:100A3300A5A301120125F3A30112012522A401128A
:100A430001253AA4011201252CA50112012563A554
:100A53000112012508A6011201251FA60112012575
:100A630051A60112012500A8011201258DA801122A
:100A73000125CCA8011201252CB3031201253DB396
:100A830003120125DDB303120125D6B70312012595
:100A930015B803120125ECFF01120125E8B3031277
:100AA3000125F8B3031201250DB40312012575B412
:100AB300031201257BAF0312012500B003120125A8
:100AC30066B00312012526AD031201255AAD0312A8
:100AD300012580AD03120125F7AD03120125ACAB4F
:100AE30003120125D5AB0312012540AC03120125E6
:100AF30091AC03120125ECAC031201255D9703129F
:100B03000125749703120125EE9703120125D2984C
:100B130003120125A99A0312012518AA031201251C
:100B23006AAA03120125DDAA0312012546AB0312AB
:100B33000125E6A00312012510A103120125DEA160
:100B430003120125B9A20312012542C00212012595
:100B530009C10212012542C102120125A2C10212DA
:100B63000125F8C10212012555C202120125EDC269
:100B730002120125FCC30212012593C502120125AD
:100B830020C60212012587C6021201259EC6021243
:100B93000125DEC7021201250BF001120125B3F373
:100BA300011201252AF5011201257AF50112012509
:100BB30097F50112012515F60112012537F80112E7
:100BC3000125FDFB011201253BAE0212012567B091
:100BD3000212012508B402120125B2B40212012542
:100BE300EEB5021201251AB7021201250080061282
:100BF3000125188006120125308006120125468042
:100C0300061201255C800612012572800612012559
:100C13008880061201259E800612012500A0061277
:100C230001252888031201256D88031201258A886E
:100C330003120125468903120125A4890312012504
:100C4300888A03120125C98B03120125028C031222
:100C530001253C8C03120125598C03120125D98CE3
:100C6300031201253F8D031201251B8E031201255B
:100C7300B38F03120125C9A603120125E0A60312AF
:100C830001250FA70312012548A70312012570A709
:100C9300031201259EA703120125B5A703120125FF
:100CA300CCA703120125E2A70312012509A8031209
:100CB30001251CA80312012532A80312012545A80A
:100CC300031201256AA803120125FDA302120125BF
:100CD300FCA40212012531A50212012552A502121C
:100CE300012562A50212012583A5021201258FA603
:100CF300021201255CA702120125CFA702120125CA
:100D030055A80212012598A802120125CFA80212A4
:100D1300012555A90212012527AA0212012585AA38
:100D2300021201259DAA0212012517AB0212012509
:100D33001AAB021201251DAB02120125C4AB02122C
:100D43000125DCAB021201250CAC021201252CACEF
:100D5300021201251AAD02120125D0AD021201259E
:100D6300F7E6021201251FE7021201254DE70212E1
:100D7300012584E702120125ECE70212012535E87B
:100D83000212012580E802120125BEE802120125A4
:100D9300FBE80212012529E902120125D0E902121A
:100DA3000125DAE902120125E7E9021201251AEA0F
:100DB30002120125DCEA02120125E8EA02120125EA
:100DC30000EB021201250AEB0212012555B20312B0
:100DD300012563B2031201257BB20312012593B2ED
:100DE30003120125D0A9011201256EAA01120125C2
:100DF300E6AA01120125FBAB0112012535AC011254
:100E03000125DEAC01120125B3AD0112012517AF97
:100E1300011201256EAF01120125F5AF0112012563
:100E2300DCB00112012529B101120125B7B101126C
:100E33000125DBB101120125B0B301120125F1B384
:100E43000112012513B40112012594B401120125E5
:100E53007EB50112012544B60112012539CF0212D4
:100E630001250BD002120125B4D002120125F7D0BF
:100E73000212012584D10212012510D2021201258A
:100E8300F1D20212012520D3021201251CD4021231
:100E9300012564D40212012566D502120125AAD5C3
:100EA30002120125D0D50212012578B403120125BF
:100EB300D88F03120125EE8F03120125149003121C
:100EC30001253C91031201254691031201259F92AE
:100ED300031201259F930312012504E20212012547
:100EE30011E30212012545E30212012587E30212F1
:100EF300012541E502120125986E00120125FB6EC2
:100F030000120125407000120125507000120125C6
:100F1300737000120125BE70001201256371001267
:100F230001255972001201252373001201259B74B8
:100F330000120125DD74001201257B7500120125C5
:100F4300C87500120125EE7500120125DC77001229
:100F53000125E17700120125C27900120125167AD5
:100F630000120125787A00120125A07A00120125CA
:100F7300447B00120125067C00120125377C0012F8
:100F830001253A7C00120125827C00120125C47CD4
:100F9300001201252B7D0012012596FD011201256A
:100FA300A9FD01120125C2FD011201250DFE011249
:100FB3000125E8FE0112012577FF01120125C2FF79
:100FC30001120125DC2600120125E8260012012565
:100FD3002127001201256627001201251D28001272
:100FE3000125A3280012012508290012012534290F
:100FF300001201256D2900120125812B0012012504
:101003005D2D00120125482F001201257F300012AB
:101013000125DF3200120125CB33001201251135E2
:10102300001201251E36001201253B360012012550
:101033007336001201258D3600120125F536001294
:1010430001258F3B00120125303C00120125813C14
:1010530000120125A83C00120125F63C00120125CF
:10106300143D00120125683D00120125413E001286
:101073000125C83F0012012550400012012545D625
:10108300021201254FD60212012516D7021201259D
:1010930065D70212012589D702120125E4D702126E
:1010A30001251CD80212012544D80212012574D946
:1010B300021201259FD902120125CAD90212012564
:1010C30019DA021201252FDA0212012575DA02124A
:1010D3000125AFDA02120125F1DA0212012539DB0B
:1010E3000212012575DB02120125C3DB0212012561
:1010F3000CDC0212012536DC021201255BDC021234
:101103000125338403120125FD8403120125E9859A
:10111300031201255F8603120125A186031201250F
:10112300CE870312012500800212012529800212B5
:101133000125428002120125878102120125658261
:101143000212012584820212012511830212012554
:10115300548302120125A184021201254085021243
:101163000125BF87021201255688021201252A890B
:10117300021201250C8A02120125788B0212012525
:101183000B8C0212012566AE03120125CFAE0312AA
:10119300012523AF031201254AAF031201259FEB5B
:1011A300021201250CEC0212012557EC0212012553
:1011B3004CED0212012548EE0212012532EF021214
:1011C3000125D4B70212012516B802120125F0B881
:1011D30002120125C9B902120125C4BA021201255E
:1011E300A3BB021201250FBC02120125D6BC0212B9
:1011F300012541BD02120125A8BD02120125D3BD5F
:101203000212012544BE02120125D7BE0212012596
:1012130040BF0212012555BF021201259DBF0212D4
:101223000125B6BF021201251BC0021201251EC0F3
:10123300021201250E9B03120125369B0312012581
:10124300749B03120125329C031201259D9C0312FA
:101253000125B99C03120125E19C03120125119D6F
:1012630003120125209D031201259A9D03120125D6
:10127300C09D03120125C6D40112012591D6011286
:10128300012553D80112012522D9011201256DD957
:1012930001120125B8D901120125D6D90112012560
:1012A30018DA0112012533DA011201257FDA01125E
:1012B3000125B9DA01120125DCDA0112012529DB46
:1012C300011201259CDB01120125AEDD011201256E
:1012D30058DF01120125A8DF01120125EDE00112FB
:1012E300012543E101120125B1E101120125FCE1D0
:1012F3000112012526E20112012551E20112012505
:10130300828C02120125AD8C0212012580930212F8
:101313000125A495021201255F9702120125BC98AD
:1013230002120125B7400012012548410012012590
:101333008E4100120125CD420012012564440012A2
:101343000125B944001201252E45001201255D46F1
:1013530000120125B84700120125BA4800120125E1
:10136300174A00120125304A001201258D4A001246
:1013730001256F4B00120125A24B00120125124CCF
:10138300001201258C4C00120125DB4C00120125B3
:10139300A74D00120125AC4E001201258B4F001200
:1013A3000125165000120125845000120125F85022
:1013B30000120125215100120125E05100120125DF
:1013C3005A53001201257753001201259653001238
:1013D30001252754001201254C5400120125745491
:1013E30000120125EF540012012549550012012571
:1013F3009D56001201255A57001201252D5800123F
:101403000125F7C60112012547C70112012553C75C
:101413000112012530C80112012560C801120125FE
:1014230098C80112012517C9011201254FC90112DC
:101433000125A1C901120125DEC90112012503CC31
:10144300011201252FCE011201252AD001120125F7
:1014530005D201120125FB7F00120125A88201128A
:101463000125F28201120125D18801120125528A38
:1014730001120125B19001120125AC910112012540
:10148300E991011201250C92011201254E920112DC
:1014930001255792011201256192011201254D93F5
:1014A300011201254194011201255B580012012507
:1014B300D36200120125D96200120125DD690012F1
:1014C3000125ADFC02120125ABFD0212012501FE2F
:1014D300021201253FFE021201259CFE0212012584
:1014E30019FF0212012522FF021201252EFF02120B
:1014F300012541FF021201257DFF0212012593FF01
:1015030002120125F4EF0212012501F00212012556
:101513001BF0021201255AF00212012598F0021263
:101523000125FDF00212012512F1021201251DF120
:10153300021201252AF10212012541F102120125AD
:101543004FF1021201255AF10212012566F102122E
:10155300012575F10212012580F102120125A3F183
:10156300021201254CF2021201255CF2021201253E
:1015730076F20212012593F202120125AFF2021252
:101583000125D4F202120125DEF202120125F2F244
:101593000212012511F30212012572F30212012531
:1015A30078F3021201257EF30212012584F302125D
:1015B300012590F302120125C3F30212012581E2F2
:1015C3000112012503E301120125ACE301120125F8
:1015D300F4E40112012502E701120125E8E70112F3
:1015E30001251DE8011201253FE801120125E8E864
:1015F30001120125B8EA01120125E1EA01120125D0
:1016030059EB011201258BEB0112012598EB011215
:101613000125E3EB0112012507EC0112012558EE28
:101623000112012562EF01120125BEEF011201250E
:1016330079B8011201258AB9011201256EBA011286
:10164300012578BA011201259ABA01120125A6BA19
:10165300011201254ABC0112012577BC01120125A3
:101663008DBD01120125E2BD0112012531BF011219
:10167300012506C00112012562C001120125CDC05A
:101683000112012502C10112012545C101120125E3
:101693000FC40112012527C401120125B8C4011288
:1016A3000125C6C40112012513C50112012521C557
:1016B300011201258DC50112012508C6011201255C
:1016C3005FC601120125DF9802120125019902125A
:1016D3000125129B02120125D19D02120125FB9EB9
:1016E30002120125B99F02120125A5A002120125AC
:1016F30010A50312012535A503120125ABA503127D
:1017030001251CC80212012525C8021201252EC875
:101713000212012506C902120125B7CA02120125C8
:10172300E7CA0212012512CB0212012542CB021293
:1017330001256DCB02120125A1CB02120125CDCBD0
:101743000212012510CC021201253BCC0212012505
:1017530082CC02120125D7CC0212012519CD021227
:10176300012573CD021201259ECD02120125EDCD77
:10177300021201251DCE0212012548CE02120125B7
:1017830076CE0212012599CE0212012581B50312EC
:101793000125ADB503120125DAB503120125E4B520
:1017A30003120125F4B503120125C3FF021201251B
:1017B3001FB803E066701008A3E066700A08A3E090
:1017C30066700408A3E06622C3E7960809E7960853
:1017D30009E7960809E79622C3E09608A3E096086E
:1017E300A3E09608A3E09622C008C3E096F5080894
:1017F300A3E096420808A3E096420808A3E09645B2
:10180300087001D3D00822080808EAC0E0EBC0E062
:1018130086F0E7A4FA180986F0E7A42AFA180986DD
:10182300F0E7A42AFA180986F0E7A42AFA1986F041
:10183300E7A4FBE5F02AFA190886F0E7A42BFBE5F9
:10184300F03AFA190886F0E7A42BFBE5F03AFA1808
:10185300180986F0E7A4C5F02BFBE43AFA1908E768
:10186300C5F0C6A426F6E5F03BFBE43AFA1886F089
:10187300E7A4F6E5F00826F6E43B08F6E43A08F6B2
:10188300D0E0FBD0E0FA22E4CFC0E0E4CEC0E0E455
:10189300CDC0E0E4CCC0E075F020C3E633F608E643
:1018A30033F608E633F608E633F6181818EC33FC7B
:1018B300ED33FDEE33FEEF33FFC3EC9709ED9709EC
:1018C300EE9709EF97191919400FFFEC97FC09EDF3
:1018D30097FD09EE97FE191906D5F0BEECF709ED51
:1018E300F709EEF709EFF7191919D0E0FCD0E0FD7D
:1018F300D0E0FED0E0FF226016080808C6C313C676
:1019030018C613C618C613C618C613C6D5E0EA22EE
:101913007009080808226016181818C6C333C608C9
:10192300C633C608C633C608C633C6D5E0EA22E6C0
:1019330027F60809E637F60809E637F60809E63711
:10194300F622E026F608A3E036F608A3E036F6080A
:10195300A3E036F622E026F008A3E036F008A3E081
:1019630036F008A3E036F022C3E697F60809E697B7
:10197300F60809E697F60809E697F622C3E096F01B
:1019830008A3E096F008A3E096F008A3E096F022FF
:10199300E056F608A3E056F608A3E056F608A3E0DF
:1019A30056F622E056F008A3E056F008A3E056F0FE
:1019B30008A3E056F022E0F608A3E0F608A3E0F659
:1019C30008A3E0F622E6F008A3E6F008A3E6F00891
:1019D300A3E6F022E0FAA3E0FBA3E0FCA3E0FD22F0
:1019E300EAF0A3EBF0A3ECF0A3EDF022CAC0E0E62B
:1019F300F0A308DAFAD0E0FA22CAC0E0E0A3C58275
:101A0300CCC582C583CDC583F0A3C582CCC582C5B1
:101A130083CDC583DAE6D0E0CA22C3E498F8E4991B
:101A2300F9121A5E8026C3E49AFAE49BFBE920E7E5
:101A3300E9121A5EE498F8E499F922C3E498F8E409
:101A430099F9121A5EE498F8E499F9C3E49AFAE46E
:101A53009BFB22EB20E7CFE920E7E0B90010BB00B6
:101A630008E88AF084F8AAF022E4FBC8FA22EB70B3
:101A7300227B10C833C8C933C9335007C39AC3DBA9
:101A8300F280069A50012ADBEAC833F4C8C933F45A
:101A9300C9FA2275F008E4C833C8C933C933C99AEF
:101AA300C99B5004C92AC93BD5F0ECFBC833F4C821
:101AB300E4C9FA22600D08C6A2E713C618C613C606
:101AC300D5E0F322600C08C6C313C618C613C6D5E7
:101AD300E0F422700422600D18C6C333C608C6336F
:101AE300C6D5E0F41822251810AF08F518400215E2
:101AF300198008F51840021519D2AF22C0D0251855
:101B030010AF08F518500205198008F518500205A2
:101B130019D2AFD0D0222518F58210AF08F518409E
:101B23000215198008F51840021519D2AF851983DB
:101B3300222518F582E43519F58322E4732518C5A7
:101B430082C0E0E51934FFC583C0E0E518C3958280
:101B530024F810AF088583198582188008858319B6
:101B6300858218D2AFCEF0A3E520F0A37808E6086B
:101B7300F0A3DEFAEFF0A3E58124FAF8E608F0A378
:101B8300E608F0A3E608F0A30808E608F0A3E608D1
:101B9300F0A315811581D0E0FED0E0F81581158101
:101BA3001581E8C0E0EEC0E0222518C582C0E0E55B
:101BB3001934FFC583C0E0E518C3958224F910AF3B
:101BC300088583198582188008858319858218D230
:101BD300AFCEF0A3E520F0A37808E608F0A3DEFA81
:101BE300EFF0A3E58124FBF8E608F0A3E608F0A3F1
:101BF3000808E608F0A3E608F0A315811581D0E0F4
:101C0300FED0E0F815811581E8C0E0EEC0E0228542
:101C13001983851882E0A3FEE0A3F5207808E0A3EA
:101C2300F608DFFAE0A3FFE0A3C0E0E0A3C0E0E032
:101C3300A3C0E0E0A3C0E0E0A3C0E010AF0885824A
:101C4300188583198008858218858319D2AFD083BC
:101C5300D082020122851983851882E0A3FEE0A3C6
:101C6300F5207808E0A3F608DFFAE0A3FFE0A3C0BD
:101C7300E0E0A3C0E0E0A3C0E0E0A3C0E010AF0851
:101C83008582188583198008858218858319D2AFC8
:101C9300D083D08222C0D02518C582C0E0E5193494
:101CA300FFC583C0E0E518C3958224F310AF088510
:101CB30083198582188008858319858218D2AFC855
:101CC300F0A3E9F0A3EAF0A3EBF0A37908E709F0A6
:101CD300A3D8FAECF0A3EDF0A3EEF0A3EFF0A3D0BA
:101CE300E0F0A3D0E0F0A3D0E0F0A3E520F0A3E57B
:101CF300F0F0A322851983851882E0C0E0A3E0F900
:101D0300A3E0FAA3E0FBA37808E0F608A3DFFAE078
:101D1300FCA3E0FDA3E0FEA3E0FFA3E0C0E0A3E09B
:101D2300C0E0A3E0F5D0A3E0F520A3E0A3F5F01015
:101D3300AF088583198582188008858319858218E1
:101D4300D2AFD082D083D0E0F8D0E03274048006E2
:101D5300740280027401C0E0F404121B19D0E01273
:101D630019EF227404800474028000CCC0E0EDC03B
:101D7300E0E518C39CCCAD1950011D10AF068C18BB
:101D83008D1980068C188D19D2AF1219FCD0E0FD85
:101D9300D0E0FC22D083D082E9C0E0E493A3C386E1
:101DA300F0C5F095F0F908E493A386F0C5F095F03B
:101DB300700BE493A3C3994005E9048002A3E4757F
:101DC300F002A42582F582E5F03583F583D0E0F9AE
:101DD300E493A3C0E0E493C0E022D083D082ECC0BC
:101DE300E0EDC0E0E493A3FCE493A3FDED4C600DB0
:101DF300121E29EC24FFFCED34FFFD80EFE493A3D6
:101E0300FCE493A3FDED4C600D121E68EC24FFFC73
:101E1300ED34FFFD80EFD0E0FDD0E0FCE493A3C000
:101E2300E0E493C0E022C0E0C3E493960874019316
:101E33009618400FE493667008087401936618704F
:101E4300007019A3A3C3E49396087401939618A38F
:101E5300A3400DD0E0D0E0D0E0021E19A3A3A3A3BA
:101E6300A3A3D0E022C0E0C0F088F0E4936670083A
:101E73000874019366187000A8F0A3A3700BD0F048
:101E8300D0E0D0E0D0E0021E19A3A3D0F0D0E0222E
:101E9400C0E074F2121C98A2AFE433FED2AFE58B1B
:101EA400A2E05003120AF6758B00C2E8EEA2E0929B
:101EB400AF7F01021CF7C0E0C0D0E8C0E0E9C0E099
:101EC400E5A8D2AFC2C7A2E7A2E792AFD0E0F9D0AB
:101ED400E0F8D0D0D0E032C0E074F2121C98E5896A
:101EE400A2E050031207D2758900C2C57F01021C0B
:101EF400F7C0E074F2121C98E58AA2E250031207BC
:101F0400D8758A00C2EB80E443C708128CA753C774
:101F1400F72274F5121BACEAFEEBFFEE2434F8EF63
:101F24003400F988088909EE2435F582EF3400F588
:101F340083E0F8EE2437F582EF3400F583E0F50A08
:101F4400EC850AF0A4FCAAF0850AF0EDA42AFDE8C9
:101F54002CF8E43DF97A257B00121A5EEA850882A2
:101F6400850983F05407F87401B800028004C33370
:101F7400D8FCC0E0E0131313541FF8EE28F8EF3434
:101F840000F9E8245DF582E93400F583D0E0F8E057
:101F9400586008EE2434F582EF801EEE2436F58274
:101FA400EF3400F583E0F5F0EA84A8F0EE28F8EFCA
:101FB4003400F9E82438F582E93400F583E0F97F48
:101FC40004021C5874F5121BACEAFEEBFFEE243439
:101FD400F582EF3400F583E0C0E0EE2435F582EFBE
:101FE4003400F583D0E0F08E828F83A3A3A3A3A350
:101FF400A3A3C082C0838E828F83A3A3A3A3A3E0E1
:10200400F8A3E0F9D083D082E0C398F508A3E0995F
:10201400F509EE2480F582EF3400F583E064017065
:1020240047EE2481F582EF3400F583E0FCA3E0FD64
:102034008E828F83A3A3A3A3A3A3A3E0FAA3E0FBAD
:10204400C3E89AE99B40030220F0C3EA9CEB9D405D
:10205400177C7A7D12EEFAEFFB1213B4EE2480F5AE
:1020640082EF3400F583E4F0EE2434F8EF3400F921
:10207400E8FCE9FDEE2435F582EF3400F583E0F861
:10208400EE2437F582EF3400F583E0F50AE50885A0
:102094000AF0A4F508AAF0850AF0E509A42AF509CE
:1020A400E82508F8E43509F97A257B00121A5EEA76
:1020B4008C828D83F05407F87401B800028004C345
:1020C40033D8FCC0E0E0131313541FF8EE28F8EFE4
:1020D4003400F9E8245DF582E93400F583D0E0F8B2
:1020E400E0586015EE2434F582EF802BC3E89CE9B8
:1020F4009D500302205502204EEE2436F582EF3423
:1021040000F583E0F5F0EA84A8F0EE28F8EF340057
:10211400F9E82438F582E93400F583E0F91226C49D
:10212400021FC3C082C083851882851983E0F8A387
:10213400E0F9C3EA9CEB9D500BC3EC98ED99401277
:1021440079018010C3EA98EB9940F5C3EC98ED99B6
:1021540050EE7900D083D08222EAC39CFAEB9DFB37
:10216400220000008521878522C622C0E0C0D0E875
:10217400C0E0E9C0E0EAC0E0EBC0E0ECC0E0EDC0E4
:10218400E0C008C009C00AC00BC082C083C0F0759B
:102194009B00906182E0A2E6400302224DE591A2F9
:1021A400E6400302224D7591BF901141E064057031
:1021B400081214E01214EC80031214E675210012C4
:1021C4001540E9901142F079001215341213307A57
:1021D400017B00901140E0F912085C907803E06400
:1021E4004260030222969012DBE014F060030222A4
:1021F40096C2AF1221FA00782AD0E0F618D0E0F6A1
:10220400E59F5407F970059081E880039081A878D0
:10221400081219B9E9C4C0E07829E65508F5080898
:10222400E65509F509740B7808121AC7D0E0250899
:10223400F8906270E0A2E740F8E8C333906272F06D
:10224400906270E0D2E0F08049E0A2E55024E5918C
:10225400A2E5501E7591DF901141E0640D7013905A
:102264001163E004F064287002E4F07A00E0F912EB
:1022740015B2906181E0A2E35009E5E9A2E35003BD
:1022840075E9F7A3E0A2E75009E591A2E7500375C9
:10229400917FD0F0D083D082D00BD00AD009D0085F
:1022A400D0E0FDD0E0FCD0E0FBD0E0FAD0E0F9D003
:1022B400E0F8D0D0D0E032C0E0C0D0C082C083907B
:1022C4006183E0A2E05009E5BFA2E0500375BFFEC0
:1022D400E0A2E15009E5BFA2E1500375BFFDE0A211
:1022E400E25009E5BFA2E2500375BFFBE0A2E35050
:1022F40009E5BFA2E3500375BFF7E0A2E45009E586
:10230400BFA2E4500375BFEFE0A2E55009E5BFA208
:10231400E5500375BFDFE0A2E65009E5BFA2E65031
:102324000375BFBFD083D0828088C0E0C0D0E8C02E
:10233400E0E9C0E0EAC0E0EBC0E0ECC0E0EDC0E002
:10234400C0F0E5A7A2E6500FE5A1A2E6500953A705
:10235400BF75A1BF122393E5A7A2E5500CE5A1A286
:10236400E5500653A7DF75A1DFE5A7A2E15009E513
:10237400A1A2E1500375A1FDE5A7A2E2500CE5A1DD
:10238400A2E2500653A7FB75A1FBD0F00222A4746D
:10239400F8121BAC752101901141E064067015120E
:1023A40014808A828B83A3A3A3A3A3A3E0FAA3E04C
:1023B400FB1214CEA2AFE433FED2AF901147E06417
:1023C4000170187A207B00901140E0F91208DA7A43
:1023D400207B00901140E0F9120862906182E0D203
:1023E400E6F09012DAE0602185C62280169011464C
:1023F400E064017008E5C654F84405F5C653BEFC14
:102404001221687401652160E4EEA2E092AF7F01BD
:10241400021C58008E238F248582288583278518E3
:1024240082851983E0CEA3E0CF852882852783EBBC
:10243400C9EAC8EDCBECCA75F010C3E833C8E93378
:10244400C9EA33CAEB33CBC3EA9EF526EB9FF525E5
:10245400B35004AB25AA26EC33CCED33CDD5F0DA5A
:10246400AE23AF242274F1121BAC8A088B098C0AA8
:102474008D0B740F121B34780C1219B99081B47837
:10248400081219939081B4780C1219937808790C76
:102494001217CB50157808790C12196B9081EC78CF
:1024A400081217EB401579018013780C790812197A
:1024B4006B9081EC780C1217EB40EB79007F0802EB
:1024C4001C5874ED121BAC8A088B098C0A8D0B7492
:1024D40013121B34780C1219B99081B478081219AC
:1024E400939081B4780C121993780C79081217CB55
:1024F40040117808790C12196BAA08AB09AC0AAD23
:102504000B80227510007511007512007513017887
:1025140010790C12196B78107908121932AA10ABC1
:1025240011AC12AD137F0C021C589081B4780812C0
:1025340019B98A828B8378081219A67F04021C5861
:1025440074F5121BAC8C828D8378081219B98A82B7
:102554008B83780812197FEA2404F8EB3400F98C91
:10256400828D83A3A3A3A3E0FCA3E0FD88828983D7
:10257400C3E09CF0A3E09DF088828983C3E09420AB
:10258400A3E0944E402290821078081219B98A82EE
:102594008B8378081219588A828B83A3A3A3A3E0A0
:1025A4002420F0A3E0344EF0808074F5121BACE9D3
:1025B400FE901290E0FAA3E0FBEEC333F8E433F9A3
:1025C40074F828F582748039F583E02AF508A3E0CD
:1025D4003BF5097808121D539081F01219D7122483
:1025E400187402121AFF8A088B098C0A8D0B741056
:1025F40078081218FAAA08AB097F04021C5874F16F
:10260400121BAC8A0C8B0D8C0E8D0F740F121B34A5
:10261400E0FAA3E0FB7411121B34E0F508A3E0F523
:10262400097413121B34E0FEA3E0FF7808121D5353
:10263400EA2401F508EB3400F509E4F50AF50B7812
:102644000C790812180A90822478081219B9780CA7
:10265400790812180AAA0CAB0DAC0EAD0F1224188F
:102664007402121AFF8B09EA450960047A01800298
:102674007A00EC2AFCED3400FDECF8EDF97A717B7C
:1026840002121A5E88088909E4F50AF50B8E828F16
:102694008378081219C8ECF8EDF97A717B02121AE2
:1026A4005E8A088B0974057808121AD68E828F8385
:1026B400A3A3A3A3E508F0A3E509F07F08021C582F
:0E26C400C082C083E9906000F0D083D08222F3
:1026D400FFFFFFFFFFFFFFFFC082C083E9901B2DB8
:1026E400F002296074F7121B40E990105FF07C97A8
:1026F4007D107AFF7BFF12105490106074FFF0A3DA
:10270400F0A3E4F0A3F07905120FDC90105FE0F978
:10271400120F047A727B1012123A02366E74F4129B
:102724001B408A088B09EB5480603090105FE0F9FD
:102734001208448A0A8B0BAE0AAF0BEE4F60138E5D
:10274400828F83E064B07003120FF4EEFAEFFB1291
:102754000832AA08E5096480FB80047A007B000241
:10276400292F74F2121B4074FC121AE9EAFEEBFFE3
:102774007412121B34123B55EE4F70030228097475
:1027840002121B34EEF0A3EF122B6AECF0A3ED124D
:102794002B6AAA82AB83120EFEE9F50A706AE50879
:1027A400450960648E828F83123B3BEE4F60567AFC
:1027B400067B001208988A0C8B0DA80CA90DE84919
:1027C4007005750A13804188828983E4122816EE05
:1027D400F0A3EF123B66E508F0A3E509F09010655D
:1027E40012289D9010657005123618801B1236064B
:1027F4008003EAFCEBFD8C828D8312289D70F38CA0
:10280400828D8380E3750A02A90A7404121AFF02F6
:102814003D55F0A3123B0CA32274F2121B40890A0B
:10282400E975F017A4FEAFF0901064E4F090106224
:1028340012289D600A12089E901062E4F0A3F0EE44
:10284400FAEFFB1208988A088B09EA4509602FEE13
:10285400FCEFFD7900120820901062E508F0A3E572
:1028640009F07B008008122887E4F0A3F00BEBC387
:10287400950A40F2E50A901064F079008002791319
:10288400023D55EB75F017A4F8A9F0901062E0280A
:10289400FAA3E0398A82F583221232AAEA4B22741F
:1028A400F4121B40740C121B34123B30FEE9FF750A
:1028B4000800750900800CE5082401F508E50934D1
:1028C40000F509C3E5089CE5099D503285080A8591
:1028D400090B7403780A121AD6EA250AF8EB350BA9
:1028E400F988828983A3A3A3A3A3A31236EDEE657B
:1028F4000A7003EF650B70BFE8FAE9FB80047A0005
:102904007B00802774F4121B407900EAA2E0501B7C
:102914007508847509817808121D537C047D007A3A
:102924002F7B1B120FD67402121AFF7F04021C1293
:10293400C082C083901065122967601C88828983D5
:10294400A3A3E06A7003A3E06B8882898370E8A381
:10295400A3A3A31232A680047A007B00D083D08282
:10296400020122123E3BE8492274EE121B4074FC21
:10297400121AE9EAFEEBFF851882851983E4F0A3B5
:10298400F0EE24021235F8EE2405123B13EE240473
:10299400F50EEF122F1FE024FE603924FC6046245C
:1029A400FE605224FE605E24FE7003022A8024FE30
:1029B4007003022AE424FE7003022AF324FE700347
:1029C400022B0224FC7003022B1124FE7003022B41
:1029D40020022B5D90107E7417F0A3E4122B721268
:1029E4000C7C022B5D851882851983AC82AD831221
:1029F4000FFA022B2D851882851983AC82AD8312C0
:102A04001000022B2D850C08850D097402121B344D
:102A1400AC82AD838508828509831232A6120F2207
:102A24008A0C8B0DAC0CAD0DEC4D603BE4F50CF554
:102A34000D780C121D53750C7E750D10780C121D3B
:102A440053750C7F750D10780C121D537408121BEE
:102A540034121D6A123FB7121AFFE9F50C700B12FB
:102A6400329C120C94800F750C01850882850983B1
:102A7400122B60123618850C08022B307402121BBC
:102A840034AC82AD83850C82850D83123071603C39
:102A9400850C82850D83A3A3121D6A75107E7511A2
:102AA400107810121D5375107F7511107810121DB7
:102AB400537408121B34121D6A123FB7121AFFE92D
:102AC400F509700B12329C120C9A800F750901855E
:102AD4000C82850D83122B60123618850908804CF0
:102AE400851882851983AC82AD83121006803A85DD
:102AF4001882851983AC82AD8312100C802B851843
:102B040082851983AC82AD83121012801C851882D1
:102B1400851983AC82AD83121018800D85188285C7
:102B24001983AC82AD8312101EE9F508E50860290B
:102B34008E828F83A3E06414601F850E82850F83C9
:102B4400E090107E122B6A123E3790107F123618D6
:102B5400E508A3122B72120C76023507123E3B8550
:102B6400188285198322F085188285198322F07CC6
:102B74007E7D10850A82850B831232AA2274EE129E
:102B84001B4074FC121AE98A0A8B0B8C0E8D0FEA17
:102B94002405F508EB3400F5097C157D0079007AED
:102BA4007E7B10120820E5082402F50CE509123B8F
:102BB40016851882851983858210858311781012F1
:102BC4001D53850882850983A3A3A3A31230681229
:102BD4001D53E5082405F510E5093400F5117810B6
:102BE400121D53850C82850D831233BD120F1C7484
:102BF40006121AFF8A108B11AE10AF11E50A2402D7
:102C0400F50AE50B1235FBEE4F7003022D3F8017DA
:102C14007402121B341232A688828983EAF0A3EB71
:102C2400F090107EE004F090107EE0C39405400321
:102C3400022D3FE4F510F5117810121D537510673D
:102C44007511107810121D537510687511107810D5
:102C5400121D537406121B34121D6A7910EEFCEF18
:102C6400FD123FB9121AFFE9705E85088285098357
:102C7400A3A3A3A3A3A3A3E0F8901067E0687048FC
:102C8400123068121D537C687D10E5082408FAE5AB
:102C9400093400FB12081A7402121AFFE960298E23
:102CA400828F83A3A3A3A31232A690107EE0F51013
:102CB40074027810121AD6747F2510F582741035B8
:102CC40011F583EAF0A3EBF07402121B3485821031
:102CD4008583117810121D537402121B34121D6A5D
:102CE400850C82850D831232CC121AFF8A108B1147
:102CF400AE10AF1190107EE0F510751100740278DB
:102D040010121AD6747E2510F874103511F98882C1
:102D14008983A312289D7003022C0BE8240308085E
:102D240008E93400F9EE4F6003022C148882898389
:102D340074FFF0A3F090107EE004F090107EE06049
:102D44000A12329C120C887900800B85088285094E
:102D54008312360F790A02350774EA121B4074FE97
:102D6400121AE98C128D13EA2405F50CEB123FA11B
:102D7400123B3F750800750900EA2402F510EB3494
:102D840000F51185188285198385820A85830B785D
:102D94000A121D53850C82850D83A3A3A3A3122FAE
:102DA40035121D53E50C2405F50AE50D1235FB78A3
:102DB4000A121D53850C82850D83122F39120F1CA4
:102DC4007406121AFF8A0A8B0BEA450B7003022E53
:102DD400DAEA2404F50EEB122F1F123B3F8A828B92
:102DE40083A3A3A3E0F98510828511831232B06016
:102DF40003022EDAE4F514F5157814121D53751434
:102E0400677515107814121D5375146875151078AC
:102E140014121D537406121B34121D6A7913AC0A62
:102E2400AD0B851082851183123FBF121AFFE9F59D
:102E3400096003022EDA901067E0F8E5087009E0F3
:102E4400240290107FF0801490107FE0FCE82402AC
:102E5400FAE43400FBEA6C7001EB707E850882AA08
:102E64008212305F9414123057506B850E82850F96
:102E740083E0C0E074802A122F16D0E0F0050885A4
:102E84000E82850F83A3E0C0E085080A7480250ABA
:102E9400122F16D0E0F00508901067122F35121D7E
:102EA400537C687D1085080A7480250A122F291224
:102EB4001AFF901067E02508F50874FF6E7003741C
:102EC400FF6F6012EE24010EEF3400FFE508C39497
:102ED400145003022D87E50860131232BA8510825C
:102EE4008511831232A6120C8E79008014E50970C4
:102EF4000375090A851282851383EEF0A3EFF0A906
:102F0400097402121AFF7F0E021C1285080C7480C9
:102F1400250CF58274103400F583223400F50F85F6
:102F24000E82F58322FA74103400FB12080874022E
:102F340022123B7522A3A3122F3F22123606FDEE66
:102F4400FAEFFB2274EE121B4074FE121AE98C0E87
:102F54008D0FEA2405F50CEB123B16750B0090104F
:102F64007EE4F0F50AEA2402F508EB3400F5098062
:102F74004490107EE0FA901067E0F812305F9417E6
:102F8400123057400D90107EE0F87416C3989010DC
:102F940067F0123068121D537C687D10747F2AFA22
:102FA4007410122F2C121AFF901067E0F890107E04
:102FB400E028F0050AE50C2416F582E50D122F1A17
:102FC400E0F8E50AC398507490107EE0C39416505C
:102FD4006BE50AC333F8E433F9E50C28FEE50D3953
:102FE400FF851882851983AC82AD838E828F83120C
:102FF40030717008750B0112360B8050E4F510F532
:10300400117810121D537510677511107810121D68
:10301400537510687511107810121D537406121B25
:1030240034121D6A7916850882850983123FBF12FE
:103034001AFFE9F50B7003022F7580BB7C7E7D10AF
:103044008508828509831232A6120CA0A90B74028A
:10305400023509E99400C365D03322EA28F8E43440
:1030640000F9E822E0F5107511007810221234FE00
:103074008A108B11AC10AD11EC4D2274EA121B4076
:1030840074FC121AE98A0C8B0D8C128D13EA240538
:10309400F50AEB1235FB750800750900E50A2402F0
:1030A400F510E50B3400F5117402121B3485820E01
:1030B40085830F780E121D53850A82850B83A3A383
:1030C400A3A3123B1B121D53E50A2405F50EE50BC1
:1030D4003400F50F780E121D53851082851183126A
:1030E40036011232A0120F1C7406121AFF8A0E8BBC
:1030F4000FAE0EAF0FE50C2402F50EE50D3400F50E
:103104000F80388882898374FFF00508122F0F74AA
:10311400FFF00508901067E0F50C750D00780C12AF
:103124001D537C687D1085080C7480250C122F2992
:10313400121AFF901067E02508F508EE4F60278EFD
:10314400828F83A3A3A3E0F9850E82850F831232B5
:10315400B0EE2404123B13E96027850C82850D83AD
:10316400123292123618E50870030232781232BA1B
:10317400850E82850F831232A6120CA679000232C4
:103184008DE4F514F5157814121D5375146775152F
:10319400107814121D537514687515107814121DC7
:1031A400537408121B34121D6A7911EEFCEFFD856D
:1031B4000E82850F83123FBF121AFFE9F509709A38
:1031C400850882AA82EA9010677009E024049010AE
:1031D4007FF08025E0F890107FE0F514E82404FCEB
:1031E400E43400FDEC65147001ED708112305F94DD
:1031F400121230574003023171850C82850D83E031
:10320400C0E074802A122F16D0E0F00508850C82E5
:10321400850D83A3E0C0E0122F0FD0E01232D585D4
:10322400820C85830D780C121D537404121B341206
:103234001D6A8510828511831232CC121AFF8A0C02
:103244008B0DAE0CAF0D85080C7480250CF8741032
:103254003400F9EE4F700302310785188285198313
:10326400E0888289831232D5A3E0C0E0122F0FD008
:10327400E0023115E509700375090A850A82850B98
:1032840083123292123618A9097404022F07123ECF
:103294003B851282851383227C7E7D10850A82857C
:1032A4000B831232AA22E0FAA3E0FB221232AA1202
:1032B4000F0AE9F5092290107FE0F5F0E508849003
:1032C400107EF07C7E7D1022122F3F120F28740492
:1032D40022F005088518828519832274EC121B409C
:1032E40074FE121AE98A088B098C0E8D0FEA2405E4
:1032F400FEEB3400FF1234E8EE2418123B13EA45C7
:103304000B700302338B1234D150291233B08A105C
:103314008B11EA4511606B7912AC0AAD0B850882FA
:103324008509831232A6851082851183121B3EE91A
:10333400F50A7058E4F50AF50B780A121D538E82CB
:103344008F83A3A3E0F50A780A121D53EE24031217
:1033540035F8780A121D538E828F831233BD1210F2
:10336400427406121AFFE9F50A7021850C82850D54
:1033740083E0701F8508828509831232A6120CAC83
:103384008011750A0E8009750A018004E50A60033C
:1033940012360B850C82850D83E06004790080026F
:1033A400A90A7402121AFF7F0C021C128518828566
:1033B40019831232AA12103022123606FD850882B1
:1033C4008509831232AA2274EE121B4074FE121A6B
:1033D400E98A088B098C0C8D0DEA2405FEEB340078
:1033E400FF750E001234E8EA450B70030234AF1285
:1033F40034D1502C1233B08A0E8B0FEA450F604A39
:103404007912AC0AAD0B8508828509831232A68530
:103414000E82850F83121B3EE9F50E60030234B25F
:103424008508828509831236EDAA0AFB1234C3701B
:10343400147AFF7BFF1234C3606C88828983E50AA7
:10344400F0A3E50BF0750A008007750E0E805F058A
:103454000A901064E0FAE50AC39A504AE50A75F046
:1034640017A4FAABF088828983A3A3E02AFAA3E025
:103474003BFB8A828B83123601EC4D70D2750A179E
:10348400750B00780A121D53EEFCEFFD1208087448
:1034940002121AFFEEFCEFFD8508828509831232C1
:1034A400A6120CB28014750E098003750E01123E2B
:1034B40033850C82850D83123618A90E0230521200
:1034C40010248A108B11A810A911E84922E50824B8
:1034D40002F508E5093400F5098A828B83A3A3A3C6
:1034E400E0A2E522851882851983AC82AD838E82A1
:1034F4008F831234FE8A0A8B0B22E0FAA3E0FB12BC
:103504000F22227404121AFF7F0A021C1274EC1296
:103514001B408C108D11EA2405F50CEB123B16753B
:103524000F00EA2402F50AEB1235FB850A82F583C3
:103534001232A612404570030235ED750E008071FB
:10354400850C82850D83E06401704F8E828F83A386
:10355400A3121D6A8E828F83A3A3A3A3E0F5127521
:1035640013007812121D53EE2405F512EF3400F502
:10357400137812121D531232A01210427406121A3A
:10358400FFE9F50F6014850C82850D83E4F0123E8B
:10359400338510828511831236187C177D007900DB
:1035A400EEFAEFFB1208208E828F83E4F0A3F0057D
:1035B4000E901064E0F8E50EC398501EE50E75F009
:1035C40017A4F8A9F0850882850983A3A3123FAB49
:1035D400123601EC4D600302354485088285098367
:1035E40074FFF0A3F0E50F70061232A0120CB8A914
:1035F4000F0233ABF50AEF3400F50B22A3123606A3
:10360400FD22E0FCA3E0228E828F83123E3B850ED6
:1036140082850F83E8F0A3E9F022C082C083901072
:1036240060E06A7003A3E06B70067A607B1080042C
:103634007A007B0002296074F7121B407F00EF754B
:10364400F003A4F8A9F0EC28F8ED39F9888289830D
:10365400E06A7003A3E06B7006E8FAE9FB800B0FE5
:10366400EFC3940240D87A007B007F01021C1274DD
:10367400F6121B40123C2470067A007B008007A3DC
:10368400A3A3A31232A6023CE574F2121B40E9FE86
:10369400740E121B341236ED7410121B34123B5587
:1036A4008C828D83E06402703BA3123E378882894A
:1036B40083E0F50CA3E0F9A80C7402687003742984
:1036C400697021750C02750D00780C121D53780871
:1036D400121D53780A121D53EEF912106674061265
:1036E4001AFF80027901023D55E0F50AA3E0F50BCB
:1036F4002274E8121B4074FB121AE9E985188285CA
:103704001983F08A168B178C0E8D0F741F121B34BD
:10371400123B557421121B341236ED7423121B34E0
:10372400123B3F7510008C828D83A3A3A3E0A2E417
:10373400502A741D121B341233B68A828B83E5829D
:1037440045837003023801790AAC0EAD0FAA16AB9B
:1037540017121B3EE9F5106003023804850E8285BA
:103764000F83E064026003023ABAA3123E3785086D
:1037740082850983A3858212858313E50E2406F5C9
:103784000CE50F123B1688828983E0FAA3E0F9EA7C
:103794002400F514E439F5157814121DDD01000038
:1037A400280128C93707000228A038032810380048
:1037B40029CA390129F239022999390329CA390454
:1037C400295B3ABA3AEE4F703E850C82850D83121E
:1037D4003B30FAE9FB8A828B83E0850A82850B837E
:1037E400123B6C121D538A828B83A3123606FDAAE8
:1037F40008AB091208087402121AFF800375100E30
:10380400A9107405023F9975100B80F4EE4F70F700
:10381400850A82850B837401F0123B4585088285F5
:103824000983F07C007D00850E82850F83A3A3A30A
:10383400A3E02401FAA3E03400FB120F22EA4B6058
:10384400418A828B83E02402F8850A82850B83E017
:1038540028F0EA2404F8EB3400F988828983E085AF
:103864001282851383123B7E123B6C121D538A8293
:103874008B83123600E5082403FAE5093400FB02C1
:1038840037F7850A82850B83E02404F07C047D00ED
:103894007900AA12AB13120820023804EE4F600319
:1038A40002380B123B45FEA3E0FF850A82850B8399
:1038B4007404F0EE850882850983F0EF8512828511
:1038C4001383F07403121B34AC82AD83EEFAEFFB66
:1038D400123C1270030239768A828B83A3A3123BB3
:1038E4003B7401121B3485820E85830F780E121DE2
:1038F400537405121B34121D6A7CFF7DFF120F28BE
:103904007404121AFF8B0FEA450F7033850C8285FD
:103914000D83123B1B121D53850C82850D83A3124C
:103924001D6A7C027D007A477B82120D5474041256
:103934001AFFE9700A7401121B3474FFF0A3F08EAD
:10394400828F83E064027034750C02750D00780C6C
:10395400121D538E828F83123600E5082404FAE583
:1039640009122F2C121AFF850A82850B83E0240288
:1039740080097401121B34EEF0A3EFF07401121BE2
:1039840034123B2CF07401121B34A3123B24A3A366
:10399400A3F0023804EE4F600302380B850C8285D5
:1039A4000D83123601AA16AB1712105A850A8285A6
:1039B4000B837402F0EA850882850983F0851282FC
:1039C400851383EB80CBEE4F600302380B123B452B
:1039D400F8A3E0F9850A82850B837402F0E8850870
:1039E40082850983F0E985128285138380A3850C7F
:1039F40082850D831232A6120802EAFC8C82A88208
:103A0400C39EE49F404BE86E7001EF70047C00801D
:103A14001F851882851983E0FAEE2AFAEF3400FB39
:103A2400C3EA98EB94005003E08004EECCC39CFC02
:103A3400EC850A82850B83F08C0A750B00780A12D8
:103A44001D53850C82850D83E02EFCA3E03F0237D5
:103A5400F2751007023804EE4F600302380B850C30
:103A640082850D83123E37850A82850B837407F0A5
:103A740088828983123B24123B0CE08512828513D1
:103A840083F0E82402FAE93400FB8A828B83123B38
:103A940024123B5D123B2CA3123B66123B35F0E82B
:103AA4002405F8E93400F988828983123B35A3128E
:103AB4003B7EA3023992741D121B34123C1D700309
:103AC400023801123E37880C890DE8450D70030257
:103AD40038018E108F117810121D53780A121D535D
:103AE4007808121D537406121B34E0F9AC0EAD0FA6
:103AF400AA16AB17850C82850D83121B3E74061221
:103B04001AFFE9F510023804F088828983A322F5AC
:103B14000CEF3400F50D22E0F50E750F00780E223F
:103B2400E085088285098322123B8522123E3BE808
:103B340022123B85A3A322A3A3A3A3E0FEA3E0FF39
:103B440022850C82850D83E0F8A3E0F5838882E06A
:103B540022E0F508A3E0F50922A3A3F08A828B836F
:103B6400A322122818A3A322F08A828B83123B7506
:103B740022E0F50A750B00780A22123B0C123B85F1
:103B840022E0850882850983A3A32274EE121B40D8
:103B940074FE121AE98A0A8B0BECFAEDFB74141208
:103BA4001B34E0F510A3E0F5117416121B34E0FE8B
:103BB4007418121B34E0F50EA3E0F50F8518828506
:103BC4001983AC82AD83123C12603E85188285193C
:103BD40083123C1D602FA3A3123B55E508450960E1
:103BE40024780E121D537810121D53EEF9AC0CAD4F
:103BF4000DAA0AAB0B850882850983121B3E740447
:103C0400121AFF8006790E80027901023052120FD7
:103C1400228A0C8B0DEA450D221232AA123C242270
:103C2400120FEE8A828B83E58245832274F6121B7F
:103C34004074FE121AE9740C121B34123B308518BE
:103C440082851983F07401121B34E9F0E4F508F558
:103C5400097808121D537508027808121D5374045C
:103C6400121B348582088583097808121D531210AB
:103C7400427406121AFF7402121AFF806474F71257
:103C84001B40EAFEEBFF89087C977D1012105AEA6C
:103C94005402600BA908EEFAEFFB120F16800279AA
:103CA4000102366E74F6121B4074FF6A700374FFCF
:103CB4006B701C7B00EB75F003A4F8A9F0EC28F8FA
:103CC400ED39F9123CEA0BEBC39402501480E6126E
:103CD400102A8A088B09A808A909E8496003123C3C
:103CE400EA7F02021C128882898374FF122816E478
:103CF400F02274F6121B4012102A8A828B83E5820A
:103D040045836006A3A3E0FA80027A007B0080D199
:103D140074F2121B408A088B09ECFEEDFF740E123C
:103D24001B34E0F50A123D5A701CEEFCEFFD7AFFDD
:103D34007BFF123D5A70047911801688828983E5CD
:103D440008F0A3E509F088828983A3A3E50AF07942
:103D5400007F06021C1212102A8A0C8B0DA80CA9D3
:103D64000DE8492274EE121B40EAFEEBFF8C088D2D
:103D740009890C7412121B34123E377414121B344A
:103D84001236017416121B341232A6750D00EC4D56
:103D94006003023E2B7402650C6003023E26888297
:103DA4008983123606F9EC2400F50EE439F50FEA9E
:103DB400F4F8EBF4F9EC58F8E50F59F9E849705DBB
:103DC400E5082406F8E5093400F9880A890B888295
:103DD400F583122F3B12105A8A108B11E50E6510D1
:103DE4007004E50F65116042780E121D53850A8236
:103DF400850B83122F3B1210607402121AFFE9F52F
:103E04000D7027780E121D53850882850983A3A39C
:103E1400122F391210787402121AFF800D750D805A
:103E24008008750D0D8003750D0BA90D02350C8EE0
:103E3400828F83123E3B22E0F8A3E0F92274E81259
:103E44001B4074E7121AE9851882851983EAF0A3E6
:103E5400EBF08C168D17890E7431121B34E0F512B9
:103E6400A3E0F5137433121B34E0F514A3E0F51545
:103E74007435121B34E0F50F750800750900E50967
:103E840075F003A4F8A9F0851882851983123FAB55
:103E9400E0F47003A3E0F47003023F89EE2402F51A
:103EA4000CEF123FA1E07003023F8985160A8517C3
:103EB4000B780A121D53AC14AD15AA12AB13120FD2
:103EC400E27402121AFF8A0A8B0BEA450B70030292
:103ED4003F89E4F510F5117810121D537406121B76
:103EE400348582108583117810121D537409121BB6
:103EF400348582108583117810121D5385128285B2
:103F04001383A3A3A3A3121D6A7914AC0AAD0B8E69
:103F1400828F83123FBF121AFFE97069850A828576
:103F24000B83A3A3A3A3123E377402121B341236CD
:103F340018850C82850D83E0A2E05018A90E740246
:103F4400121B34AC82AD838E828F831232A6120F81
:103F54003AE94208850C82850D83E0A2E15026E50A
:103F64000FF50A780A121D57A90E7403121B34ACFC
:103F740082AD838E828F831232A6120F34740112A3
:103F84001AFFE942080509E509C394025003023EF9
:103F940082A9087419121AFF7F10021C123400F54A
:103FA4000D850C82F58322E028FEA3E039FF8E8282
:103FB4008F83227916850A82850B831232AA121006
:103FC4003C74082274F2121B40EAFEEBFF890B7466
:103FD40001650B600E7402650B706379011212584F
:103FE400E9705BEEFAEFFB1240456047750A00800A
:103FF4000B7C177D007900120820050A901064E0FC
:10400400F8E50AC3985021E50A75F017A4F8A9F059
:10401400850882850983A3A3E028FAA3E039FB8AF3
:10402400828B8312296770C985088285098374FF8E
:10403400F0A3F07C977D10EEFAEFFB121054023DD2
:10404400551210248A088B09EA45092274F2121BBE
:10405400408A088B09ECFEEDFF740E121B341236F5
:10406400ED901B2DE0F4603D7A097B0012082CEAE8
:104074004B60328A828B8374B1F0A3E4123B5FA35A
:10408400123B5DA3E508F0A3E5091240ACEEF0A3F2
:10409400EF1240ACA3A3E50AF0A3E50BF0901B2DAF
:1040A400E0F9120838023D55F08A828B83A3A3A35A
:1040B400A3A322C082C0839061907404F0A37448C7
:1040C400F0A37402F09061807440F09061BC7403BA
:1040D400F09061877419F0906265741BF090619A96
:1040E4007433F0A37455F09061A0743AF09012D830
:1040F400E064017009C291901145746780059011C4
:10410400457461F09026DAE493906186F09026D4A9
:10411400E493F46027E493540FF8906185E06860B9
:1041240012E5C654804449F5C6E59E547F6449703F
:10413400F8E8F053C680E59E547F70FA79051215AD
:10414400940242C6C082C083E5A8F853A87E906159
:1041540081E4F0A3F0A3F0C2BA539AFEC289759B1E
:1041640000C2C275E90075910075BF0075A911758B
:10417400B905906181F0A374C0F0A3E4F0D2BA430E
:104184009A0174805842A80242C6C082C08374F85F
:10419400121AE9901143E0F8A3E0F9E84970030228
:1041A40042BC901143E0544060237908851882850D
:1041B4001983AA82AB8312140E851882851983AAE7
:1041C40082AB831210EA901143E054BFF0E05480B4
:1041D4006010790C7AFC7B1212140E901143E05497
:1041E4007FF0E0A2E0503190619A7433F0A37455EB
:1041F400F09061A0743AF09012D8E064017009C2A2
:1042040091901145746780059011457461F0121006
:10421400F0901143E054FEF0E05402603190619A52
:10422400743FF0A3745AF09061A0747FF09012D898
:10423400E064017009D29190114574718005901168
:1042440045746AF01210F0901143E054FDF0E0540C
:104254000460139026D8E493906186F01210F690CF
:104264001143E054FBF0E0540860139026D9E49322
:10427400906186F01210F6901143E054F7F0E05488
:104284001060139026DAE493906186F01210F69091
:104294001143E054EFF0E05420600A1210F690113C
:1042A40043E054DFF0A3E05401600D12133C1210FC
:1042B400FC901144E054FEF07408121AFF8003F0DD
:1042C400A3F0D083D08202012274EC121B4074F458
:1042D400121AE9851882851983AC82AD83758381AE
:1042E4007582AC74041219FC9026D893F46003020E
:1042F400445A907808E0C39402500302443A740488
:10430400121B34AC82AD837583817582527408129A
:1043140019FC851882851983858212858313740498
:10432400121B34AC82AD83750EFF750FFF7FFF7EC9
:1043340000750C48750D78801574086E700302437F
:10434400CD74096E70030243CD740A6E607B850CD4
:1043540082850D8378081219B98C828D83A909E5A9
:104364000AC9F88810741878081218FAE510450874
:10437400F8C3E098A3E099850C82850D8378081230
:1043840019B940188C828D83741878081218FAE5CC
:10439400104508F8E0C398F8A3E0801C7418780866
:1043A4001218FAE5104508FAE9FB8C828D83E0F8CF
:1043B400A3E0F9EAC398F8EB99F9C3E8950EE995F7
:1043C4000F5006880E890FEEFF0EE50C2404F50C41
:1043D400E50D3400F50DEEC39413500302433D7410
:1043E400FF650E700474FF650F60238F08740278F4
:1043F40008121AD674482508F58274783509F583AD
:1044040078081219B9851282851383E508F0EC2423
:10441400020C0CED3400FD851282851383A3858282
:1044240012858313740C121B34E5826C7003E583CC
:104434006D600302432B7508017509007808121D8D
:10444400537402121B34AC82AD837AB67B09120A10
:10445400BA7402121AFF740C121AFF7F0C021C1297
:10446400C082C08390618674E1F09061AE7468F09C
:10447400A3746AF090624574FBF0A304F053F4FD56
:1044840043FE029012D87401F090619A7433F0A341
:104494007455F09061A0743AF0740164017009C21B
:1044A400919011457467800590114574610242C56D
:1044B4007F04021C12C082C08375E1F190128DE06A
:1044C40060551460081460591460518059121348DF
:1044D400901283E0F97A847B121215169081A4124B
:1044E40019D712154C9081B81219D71215229012AF
:1044F4008EE0F912152E7901121588901281E024AC
:1045040016F8A3E03400F9888289837460F0A374F8
:1045140013F079000242C612134E80B41213548071
:10452400AF12135A80AA791280EA74F4121B4075F0
:10453400D90D901273E0A2E0E4331313F8901283C0
:10454400E0C4333354C0484401F5D97881791288E2
:10455400828983A3A3A3E0F5D988828983A3A8824F
:10456400A983E864877003E9641270E378737912AD
:1045740088828983A3E0F5D988828983A3A882A944
:1045840083E864797003E9641270E575E19590122B
:1045940073E0F97A747B1212151C901B4F7400F0AF
:1045A400A37413F0A37456F0A37414F0A37456F018
:1045B400A37414F0A37456F0A37414F0A37406F057
:1045C400A37413F0A37456F0A37414F0A3741EF030
:1045D400A37413F0901B5D7456F0A37414F0A374C9
:1045E40056F0A37414F0A37456F0A37414F0A374D7
:1045F40056F0A37414F0A37456F0A37414F0A374C7
:1046040056F0A37414F0901281E0F8A3E0F58388C7
:1046140082A3A378081219B99081A07808121945C9
:104624009081B47808121993901281E0240EF8A3B3
:10463400E03400F98882898378081219C8901281BD
:10464400E02414F8A3E03400F9888289837413F019
:104654009011417402F00244B4C082C0839012935A
:10466400E02407F5D9901283E0C4333354C0F5D95C
:104674007881791288828983A3A3A3E0F5D98882FB
:104684008983A3A882A983E864877003E96412700C
:10469400E3901293E0601F78817912FAE82413F50D
:1046A40082E93400F583E0F5D988828983A3A8825E
:1046B400A9831AEA70E69012B3E02407F5D99012A0
:1046C40083E0C4333354C04404F5D9788179128823
:1046D400828983A3A3A3E0F5D988828983A3A882CE
:1046E400A983E864877003E9641270E39012B3E06D
:1046F400601F78817912FAE82433F582E93400F5F1
:1047040083E0F5D988828983A3A882A9831AEA70F1
:10471400E675E195901B4F740CF0A37413F0A37429
:1047240056F0A37414F0A37456F0A37414F0A37495
:1047340056F0A37414F0A37406F0A37413F0A374D6
:1047440056F0A37414F0A3741EF0A37413F0901B1A
:104754005D7456F0A37414F0A37456F0A37414F0AB
:10476400A37456F0A37414F0A37456F0A37414F055
:10477400A37456F0A37414F0A37456F0A37414F045
:104784009082101219D7901281E0240EF8A3E0341D
:1047940000F9888289831219E3901281E02414F8C5
:1047A400A3E03400F9888289837412F09011417473
:1047B400010242C5C082C083901293E02407F5D958
:1047C400901283E0C4333354C04402F5D97881791C
:1047D4001288828983A3A3A3E0F5D988828983A35D
:1047E400A882A983E864877003E9641270E39012D5
:1047F40093E0601F78817912FAE82413F582E93492
:1048040000F583E0F5D988828983A3A882A9831A55
:10481400EA70E675E195901B4F7418F0A37413F0D9
:10482400A37418F0A37413F0A37418F0A37413F012
:10483400A37418F0A37413F0A37418F0A37413F002
:10484400A37418F0A37413F0A3741EF0A37413F0EC
:10485400901B5D7456F0A37414F0A37456F0A37403
:1048640014F0A37456F0A37414F0A37456F0A37454
:1048740014F0A37456F0A37414F0A37456F0A37444
:1048840014F09082101219D7901281E0240EF8A32C
:10489400E03400F9888289831219E3901281E024BC
:1048A40014F8A3E03400F9888289837414F0901119
:1048B4004174040242C5C082C083901293E024076D
:1048C400F5D9901283E0C4333354C04406F5D97843
:1048D40081791288828983A3A3A3E0F5D988828988
:1048E40083A3A882A983E864877003E9641270E350
:1048F400901293E0601F78817912FAE82413F5820C
:10490400E93400F583E0F5D988828983A3A882A9D4
:10491400831AEA70E69012B3E02407F5D990128363
:10492400E0C4333354C04404F5D9788179128882C1
:104934008983A3A3A3E0F5D988828983A3A882A944
:1049440083E864877003E9641270E39012B3E06053
:104954001F78817912FAE82433F582E93400F5836B
:10496400E0F5D988828983A3A882A9831AEA70E62C
:1049740075E195901B4F7412F0A37413F0A3745651
:10498400F0A37414F0A37456F0A37414F0A3745633
:10499400F0A37414F0A37456F0A37414F0A3745623
:1049A400F0A37414F0A3741EF0A37413F0901B5DB1
:1049B4007456F0A37414F0A37456F0A37414F0A303
:1049C4007456F0A37414F0A37456F0A37414F0A3F3
:1049D4007456F0A37414F0A37456F0A37414F090F6
:1049E40082101219D7901281E0240EF8A3E034004B
:1049F400F9888289831219E3901281E02414F8A3C0
:104A0400E03400F9888289837415F09011417403AD
:104A14000242C5C082C083901281E0F8A3E0F5830E
:104A24008882A3A3A3A3A3A3E40242C374F7121B23
:104A34004090116DE0F875F004A4C8AAF02AF97446
:104A44006F28F8741139F9E82405FAE93400FB8A6F
:104A5400828B83E0FCA3E0FD88828983A3A3A3A3C4
:104A6400A3A3A3A3A3ECF0A3EDF088828983A3A35B
:104A7400A3A3A3A3A3E024FFF8A3E034FFF98A824D
:104A84008B83E8F0A3E9024CD574F7121B40EAFECD
:104A9400EBFF9061D0E06003024B6A75D90E75D9C3
:104AA4000375D904EE248CF582EF3400F583E58296
:104AB4002408F8E5833400F9E0F5D9A3E8658270A9
:104AC40003E9658370F2EE2484F582EF3400F58304
:104AD400E5822404F8E5833400F9E0F5D9A3E86518
:104AE400827003E9658370F275E1957908EE248C90
:104AF400FAEF3400FB1214027904EE2484FAEF3442
:104B040000FB1214027C00EEF8EFF9ECFAC3E49A0D
:104B1400FA95E0FBEE2AFAEF3BFBEA248BF582EBF5
:104B24003400F583E0C0E0E824ABF582E93400F515
:104B340083D0E0F00C88828983A3A882A983ECC384
:104B4400940840C7EE2470F582EF3400F583E0F852
:104B5400A3E0F9EE2472F582EF3400F583E8F0A3C4
:104B6400E9F0790180027900024CD6C082C08375D5
:104B7400D90275D90375D90575E195EA2470F582D2
:104B8400EB3400F583E0F8A3E0F9EA2472F582EB54
:104B94003400F583E8F0A3E9F079010242C674F623
:104BA400121B40EAFEEBFF9012DC7406F07508DC81
:104BB4007509127808121D537C01790312144A7482
:104BC40002121AFF75D90675D9037582DC75831232
:104BD400E0F5D9A3E58264E17004E583641270F022
:104BE40075E195901141E06408701EEE2470F58221
:104BF400EF3400F583E0F8A3E0F9EE2472F582EFD8
:104C04003400F583E8F0A3E9F07901024DA274F6CB
:104C1400121B40EAFEEBFF9061D0E07066780190D1
:104C240012DC740BF0901141E0640770197508DC14
:104C34007509127808121D537C01790312144A7401
:104C440002121AFF7805740128F5D975D903758203
:104C5400DC758312E8FAE0F5D9A31AEA70F875E175
:104C640095EE2470F582EF3400F583E0F8A3E0F9C3
:104C7400EE2472F582EF3400F583E8F0A3E9F079CD
:104C84000180027900024DA274F7121B40EAFEEB88
:104C9400FF75D90375D90375D90DEE24DEF582EFBE
:104CA4003400F583E0F5D975E1957904121552EED7
:104CB4002470F582EF3400F583E0F8A3E0F9EE24E4
:104CC40072F582EF3400F583E8F0A3E9F07901800E
:104CD40001F07F01021C1274F6121B40EAFEEBFF86
:104CE4009061D0E0F87480C398FAEE2483F582EFE3
:104CF4003400F583E06004780480027800E8240B33
:104D0400F8EAC3985003024DA07D099012DCEDF03F
:104D1400EE24E3F8EF3400F97ADD7B127C08888214
:104D24008983E08A828B83F088828983A3A882A9FD
:104D3400838A828B83A3AA82AB831CEC70E0EE246B
:104D440083F582EF3400F583E0601D7508DC750996
:104D5400127808121D537C097903EEFAEFFB121442
:104D64004A7402121AFF7D0D74012DF5D975D90309
:104D74007582DC7583128D08E0F5D9A31508E50862
:104D840070F675E1957904121552EE241DF582EF43
:104D94003400F583E4F0A3F07901800279007F0206
:104DA400021C1274F6121B40EAFEEBFF9061D0E085
:104DB400F87480C398FAEE2483F582EF3400F58307
:104DC400E06004780480027800E82408F8EAC398D4
:104DD4005003024EA77D069012DC740CF090115E15
:104DE400E09012DDF07A5F7B1178DE79127C028A22
:104DF400828B83E088828983F08A828B83A3AA8250
:104E0400AB8388828983A3A882A9831CEC70E07A8F
:104E1400617B117C028A828B83E088828983F08A99
:104E2400828B83A3AA82AB8388828983A3A882A965
:104E3400831CEC70E0EE2483F582EF3400F583E00C
:104E4400601D7508DC7509127808121D537C0679FB
:104E540003EEFAEFFB12144A7402121AFF7D0A746D
:104E6400012DF5D975D9037582DC7583128D08E09F
:104E7400F5D9A31508E50870F675E19579041215BE
:104E840052EE2470F582EF3400F583E0F8A3E0F9E4
:104E9400EE2472F582EF3400F583E8F0A3E9F079AB
:104EA4000180027900024DA274F6121B40EAFEEB67
:104EB400FF9061D0E0F87480C398FAEE2483F58201
:104EC400EF3400F583E06004780480027800E8247D
:104ED40004F8EAC3985003024F8678029012DCE883
:104EE400F0EE24F5F582EF3400F583E09012DDF066
:104EF400EE2483F582EF3400F583E0601B7508DC53
:104F04007509127808121D537C027903EEFA121403
:104F14004A7402121AFF7806740128F5D975D90368
:104F24007582DC7583128808E0F5D9A31508E508B5
:104F340070F675E195EE2474F582EF3400F583E4A0
:104F4400F0EE2480F582EF3400F583E4F0EE241DC6
:104F5400F582EF3400F583E4F0A3F07904121552DE
:104F6400EE240DF582EF3400F583E0F8A3E0F9EECA
:104F74002472F582EF3400F583E8F0A3E9F07901B7
:104F840080027900024DA274F6121B409061D0E0B9
:104F9400F87480C398FCEA2483F582EB3400F5832B
:104FA400E06004780480027800E82404F8ECC398F4
:104FB400405B79029012DC7407F0EA24F6F582EB88
:104FC4003400F583E09012DDF0EA2483F582EB34BB
:104FD40000F583E060187508DC7509127808121D65
:104FE400537C020912144A7402121AFF79067401DE
:104FF40029F5D975D9037582DC758312E9F8E0F5D2
:10500400D9A318E870F875E1957901800279000256
:105014004DA274F5121B40E9FCA2AFE433F50AC2B9
:10502400AF7D0080010DEA246FF582EB3400F58337
:10503400E0F8EDC398501A8D08EA2508F8EB34001F
:10504400F9E8246BF582E93400F583E06C70D680CE
:1050540024EA246FF8EB3400F9E0FEEA2EFAEB348C
:1050640000FBEA246BF582EB3400F583ECF08882D4
:105074008983E004F0E50AA2E092AF7F03021C12E8
:1050840074F6121B40A2AFE433FDC2AFEA246FF5FD
:1050940082EB3400F583E014F07C0060368C08EA7F
:1050A4002508F8EB3400F9E8246CF582E93400F5BE
:1050B40083E0C0E0E8246BF582E93400F583D0E0B6
:1050C400F00CEA246FF582EB3400F583E0F8ECC3CE
:1050D4009840CAEA246EF582EB3400F58374FFF03D
:1050E400EA246AF582EB3400F583E4F0EDA2E09261
:1050F400AF024DA2C082C083E5A8F8C2AFEA246B18
:10510400F582EB3400F583E9F0EA246AF582EB34A6
:1051140000F583E4F0E8A2E792AF0242C674F3120A
:105124001B40EAFEEBFFECFAEDFB8A828B83A3A320
:10513400A3A3E0541FF0EE2436F582EF3400F58388
:10514400E4F0F50AEEFCEFFD8A828B83E0C0E0EC2C
:10515400245DF582ED3400F583D0E0F0750B00E5B5
:105164000A33333354F8F50C8A828B83E0F50875DF
:105174000900E50B7808121AB7E508A2E0502FEEF3
:105184002436F8EF3400F988828983E0F508EE25A7
:1051940008F508EF3400F509E5082438F582E50937
:1051A4003400F583E50CF088828983E004F0050B74
:1051B400050CE50BC3940840AF050A8A828B83A3D0
:1051C400AA82AB838C828D83A3AC82AD83E50AC3B0
:1051D4009405500302514C7F05021C1274F7121BF4
:1051E4004090116BE0640170077A007B0002535712
:1051F4007E00901171E070F17401F0A3E4F0A3F06B
:105204009011D104F09011D4E4F0A3F09011D704DC
:10521400F0901174E4F0A3F0A3F0A3F090117E04D5
:10522400F09011A4E4F09081F81219D7901187122C
:1052340019E390118BE4F0A3F0A3F09011EFF09038
:1052440011E3F09011D87480F0A3E4F09011DEF033
:105254009011D6F090125AF0A3F0A3F0A3F0A3F0AB
:10526400A3F0A3F0A3F0901263F09011F2F0901267
:1052740042F0A3F09081F81219D79012441219E366
:105284009081F81219D79012481219E390124EE443
:10529400F0901250F090124CF0901266F0A3F0A32C
:1052A400F0A3F0A3F0A3F0A3F0A3F0786B7911E8D6
:1052B400246FF582E93400F58374FFF00E88828947
:1052C40083A3A882A983EEC3940440E37A6B7B1181
:1052D400787A791288828983E0C0E0EA2461F582D1
:1052E400EB3400F583D0E0F088828983A3A882A9F7
:1052F400838A828B83A3AA82AB83E8647F7003E9E9
:10530400641270D07A6B7B11785479118882898306
:10531400A3E0C0E0EA24E7F582EB3400F583D0E0B3
:10532400F088828983A3A882A9838A828B83A3AA13
:1053340082AB83E8645C7003E9641170CF90116BF5
:10534400E004F064017008901173E090116DF07A3C
:105354006F7B11024CD6C082C083901172E4F0902E
:105364001171F090116BF0A3F0A374FFF075E1F1EB
:105374000242C6C082C08378007900901172E06056
:1053840004786F791188828983A3A3A3A3E0F90227
:1053940042C674F6121B40EAFEEBFF8E828F83A393
:1053A400A3A3E0600F8E828F83A3A3A3E4F09011E4
:1053B4006CE014F090116BE014F0700690116D74B1
:1053C400FFF08E828F83A3A3E4F090127FE0700D30
:1053D40090116CE0640170057900121534EE2465B7
:1053E400F582EF3400F583E0F8A3E0F9E849602999
:1053F400EE2465F8EF3400F9880889098882F5837A
:10540400E0FCA3E0FD90116DE0FA7B001211208511
:105414000882850983E4F0A3F0EEFAEFFB12147A14
:10542400024DA274F7121B40EAFEEBFF8E828F83BB
:10543400A3A3A3A3E0FA7B00121162EEFAEFFB121E
:1054440013CC121462024CD6C082C08378547911F2
:1054540088828983A3E4F088828983A3A882A983AC
:10546400E8645C7003E9641170E69011550247B377
:1054740074F6121B40EAFEEBFFEC2403F8ED340053
:10548400F988088909EC2407F8ED3400F9E8FCE907
:10549400FD8C828D83E0F8A3E0F985088285098379
:1054A400E0FAA3E0FB121A5EEE240DF582EF34005D
:1054B400F583E8F0A3E9F08C828D83E0F8A3E0F9AA
:1054C400850882850983E0FAA3E0FB121A5E8B0942
:1054D400EA45096013EE240DF582EF3400F583E00C
:1054E4002401F0A3E03400F0024DA274F6121B4034
:1054F400EAFEEBFFEE242EF582EF3400F583E0FCA8
:10550400A3E0FD780079FAECFAEDFB121A5EEE24C2
:1055140070F582EF3400F583E8F0A3E9F0780079C0
:10552400FAECFAEDFB121A5E8B09EA45096013EEF8
:105534002470F582EF3400F583E02401F0A3E03415
:1055440000F0024DA274F0121B40EAFEEBFF74104F
:10555400121B3478081219B91214F88A0C8B0D8CAA
:105564000E8D0F9081BC780C1219459081B4780C83
:10557400121993780C121D4F8E828F83E0F8A3E0EA
:10558400F5838882A3A31219D71224697404121A0A
:10559400FFE960030256968E828F83E02402F8A30B
:1055A400E03400F9E8FAE9FB8A828B83780812195F
:1055B400589081B478081219B98A828B83780812BA
:1055C40019A6EE240BF582EF3400F583C082C08364
:1055D4008E828F83A3A3A3A3A3E02401F8A3E034C2
:1055E40000F9D083D082E0687003A3E06970057984
:1055F400010256988E828F83A3A3A3A3A3A3A3E03F
:105604002401F0A3E03400F0EE2474F582EF3400BA
:10561400F583E064017036EE2475F582EF3400F50D
:1056240083E0F8A3E0F98E828F83A3A3A3A3A3A3AB
:10563400A3E0687003A3E0697013EE2475F582EFAC
:105644003400F583E02401F0A3E03400F0EE24807C
:10565400F582EF3400F583E064017036EE2481F5C1
:1056640082EF3400F583E0F8A3E0F98E828F83A300
:10567400A3A3A3A3A3A3E0687003A3E0697013EE3C
:105684002481F582EF3400F583E02401F0A3E034B3
:1056940000F079007F08021C1274F7121B4090116D
:1056A4006DE0F875F004A4C8AAF02AF9746F28FE16
:1056B400741139FF8028EE2465F8EF3400F98882EC
:1056C4008983E0FCA3E0FD88828983E4F0A3F08E63
:1056D400828F83A3A3A3A3E0FA7B00121120EE24FC
:1056E40065F582EF3400F583E0F8A3E0F9E849605A
:1056F4004FEE2464F582EF3400F583E0F508780872
:10570400121D57EE2463F582EF3400F583E0F9EEC1
:105714002465F582EF3400F583E0FCA3E0FDEEFAA6
:10572400EFFB1213F67401121AFFE96089EE246587
:10573400F582EF3400F583E0F8A3E0F9E84970134B
:105744007C007D008E828F83A3A3A3A3E0FA7B0059
:10575400121120024CD674F2121B40EAFEEBFF89B0
:105764000A740E121B34E0FAEE2462F582EF340060
:10577400F583E0640160030258269061D0E0F87478
:1057840080C398F50CEE2483F582EF3400F583E0B2
:1057940060047804800278008908E928F8E4340079
:1057A400F9E824020808E93400F9E50C98E499A220
:1057B400D265D0334068EA7005750B028003750B1F
:1057C40001E060397509007808121D537ADC7B12F8
:1057D40012142C7402121AFF7508DC750912780869
:1057E400121D53AC0AA90BEEFAEFFB12144A740211
:1057F400121AFF7404250AF50A7CDC7D1274012553
:105804000AF5D9850BD9E50A600D8C828D83F8E001
:10581400F5D9A318E870F875E19579008006790741
:10582400800279FF7F06021C12C082C083E96020D7
:105834008C828D83E08A828B83F08C828D83A3ACEF
:1058440082AD838A828B83A3AA82AB8319E970E039
:10585400ECFAEDFB0242C674EA121B40907803E0B6
:105864006442705E9012DBE014F07056C2AF1258BE
:105874007500782AD0E0F618D0E0F6E59F5407F9D1
:1058840070059081E880039081A878081219B9E91D
:10589400C4C0E07829E65508F50808E65509F50975
:1058A400740B7808121AC7D0E02508F8906270E0EB
:1058B400A2E740F8E8C333906272F0906270E0D2DD
:1058C400E0F090116DE0F47003025C7EE0F875F096
:1058D40004A4C8AAF02AF9746F28FE741139FFEEE3
:1058E4002402F582EF3401F583E0F8A3E0F9E849F6
:1058F400601EEE2402F582EF3401F583E0FAA3E0A2
:10590400FBEE2401F582EF3401F583E0F912085C23
:105914008E828F83A3A3A3A3A3A3A3E0F8A3E0F998
:105924008E828F83A3A3A3A3A3E8F0A3E9F09060DE
:1059340054E0901148F0906055E0901149F0906067
:1059440056E090114AF0906057E090114BF090604F
:1059540058E090114CF0906059E090114DF0906037
:105964005AE090114EF090605BE090114FF090601F
:105974005CE0FC901150F090605DE0FB901151F000
:1059840090605EE0FD901152F090605FE0FA90113B
:1059940053F090114EE08C082508F8E43400F98D9A
:1059A40008E82508F8E93400F98B08E82508F8E93F
:1059B4003400F98A08E82508FAE93400FBEE24F7F4
:1059C400F582EF3400F583E02AF0A3E03BF08C0885
:1059D400EE24F9F582EF3400F583E02508F0A3E026
:1059E4003400F0EE24FBF582EF3400F583E024016B
:1059F400F0A3E03400F0EE24FFF582EF3400F583E9
:105A0400E0F8A3E0F9E8496042906000E0C333FCA9
:105A1400E433FDE82CF582E93DF583E02AF0A3E0C8
:105A24003BF0906000E0FA901150E0FCEAC333FAD6
:105A3400E433FBE82AF8E93BF9E8244AF582E9343F
:105A440000F583E02CF0A3E03400F090114EE070F8
:105A540011901151E0700BA3E07007A3E0700302F2
:105A64005B5E8E828F83A3A3A3A3A3E0F8A3E0F9D4
:105A7400EE240DF582EF3400F583E028F8A3E03935
:105A8400F9EE240BF582EF3400F583E8F0A3E9F096
:105A9400EE240FF582EF3400F583E4F0EE241CF5D8
:105AA40082EF3400F583E06401701EEE2420F58259
:105AB400EF3400F583E0F8A3E0F9EE241DF582EF5E
:105AC4003400F583E8F0A3E9F0901149E06052EE68
:105AD400241CF582EF3400F5837401F0EE246AF59A
:105AE40082EF3400F583E07038EE2474F582EF34ED
:105AF40000F583E0702BEE2480F582EF3400F5830B
:105B0400E0701EEE2420F582EF3400F583E0F8A364
:105B1400E0F9EE241DF582EF3400F583E8F0A3E903
:105B2400F0906062E07003025C118E828F83E0F873
